:100000000C94CA220C94FB220C94FB220C94FB222D
:100010000C94FB220C94FB220C94FB220C94FB22EC
:100020000C94FB220C94FB220C94FB220C94FB22DC
:100030000C94FB220C94FB220C94FB220C94FB22CC
:100040000C94FB220C94BB950C94FB220C94FB2289
:100050000C94FB220C94FB220C9413920D94523EB0
:100060000C94FB220C94BC500C94FB220C94FB22AD
:100070000C94FB220C94FB220C94FB220C94FB228C
:100080000C94FB220C94FB220C94FB220C94FB227C
:100090000C94FB220C94FB220C94FB220C941B303E
:1000A0000C94FB220C94FB220C94FB220C94FB225C
:1000B0000C94FB220C94FB220C94FB220C94FB224C
:1000C0000C94FB220C94FB220C94FB220C94FB223C
:1000D0000C94FB220C94FB220C94FB220C94FB222C
:1000E0000C94FB22084AD73B3BCE016E84BCBFFD7B
:1000F000C12F3D6C74319ABD56833DDA3D00C77FF8
:1001000011BED9E4BB4C3E916BAAAABE0000008090
:100110003F05A84CCDB2D44EB93836A9020C50B91F
:10012000918688083CA6AAAA2ABE000000803F004B
:100130000D948A1F0D94041B0D945F240D94D61A00
:100140000D944B1E0D9467210D94EF350D94140CF6
:100150000D94E50A0D9488240D94F8260D94F63537
:100160000D94D5350D945D1F0D94B0060D946C045F
:100170000D940E360D940A210D94FA3A0D94F42C38
:100180000D945C3B0D9406260D942E200D94202A90
:100190000D94A7110D94C6360D9450070D94DB25D0
:1001A0000D94C32F0D9433260D94AA360D949336D7
:1001B0000D9416290D948A030D94D8360D94F81FCA
:1001C0000D941C360D9461230D9422170D9466181E
:1001D0000D9485250D945A2E0D94A4420D940F373D
:1001E0000D9418360D94EB350D9423370D94FB3692
:1001F0000D9499040D94EC360D9419370D94022446
:100200000D94000D0D942E210D94A81A0D949C357B
:100210000D9421080D94443E0D9414360D941E1A2D
:100220000D94912B0D940E210D940A360D94CE361B
:100230000D9436210D94CD3A0D94273B0D94B025A5
:100240000D943D3E0D9499310D944B3E0D94FC352B
:100250000D94F3350D940A0E0D944C1A0D949835A7
:100260000D945B020D947A1A0D949B360D94C23353
:100270000D9459240D948D2D0D94360F0D94D42288
:100280000D94D0230D9433330D949D010D94E735D7
:100290000D94B4360D94F0260D94E2360D946C2036
:1002A0000D94D63B0D94F0190D944F130D94A03678
:1002B0000D949E160D942D370D9406360D9422360E
:1002C0000D9453240D9426360D940E1C0D94003677
:1002D0000D9473420D9459100D9446090D94BE3639
:1002E0000D9405370D944F050D943E2E0D94181660
:1002F0000D94E2230D94D0350D94EF024E414E49FA
:100300004E495459494E46CDCCCC3D0AD7233C17D3
:10031000B7D13877CC2B329595E6241FB14F0A0020
:100320000020410000C84200401C4620BCBE4CCA10
:100330001B0E5AAEC59D7453657474696E67732045
:1003400053746F726564002044002049002020200F
:100350004D33303120500050494420736574746926
:100360006E67733A00205A0020590020204D323029
:1003700036205800486F6D65206F6666736574207F
:10038000286D6D293A00204500205A002058002091
:10039000420020540020204D32303520530041646B
:1003A00076616E636564207661726961626C657303
:1003B0003A20533D4D696E206665656472617465CF
:1003C00020286D6D2F73292C20543D4D696E2074AB
:1003D000726176656C20666565647261746520285B
:1003E0006D6D2F73292C20423D6D696E696D756DA1
:1003F000207365676D656E742074696D6520286D66
:1004000073292C20583D6D6178696D756D205859A0
:10041000206A65726B20286D6D2F73292C20205A5D
:100420003D6D6178696D756D205A206A65726B202B
:10043000286D6D2F73292C2020453D6D6178696DE5
:10044000756D2045206A65726B20286D6D2F7329AC
:100450000020540020204D3230342053004163638B
:10046000656C65726174696F6E3A20533D616363B8
:10047000656C65726174696F6E2C20543D72657491
:100480007261637420616363656C65726174696F26
:100490006E00204500205A0020590020204D3230A7
:1004A000312058004D6178696D756D204163636539
:1004B0006C65726174696F6E20286D6D2F733229BF
:1004C0003A00204500205A0020590020204D3230AB
:1004D000332058004D6178696D756D2066656564DF
:1004E000726174657320286D6D2F73293A00204561
:1004F00000205A0020590020204D39322058005346
:10050000746570732070657220756E69743A005658
:100510003031300053746F72656420736574746990
:100520006E677320726574726965766564004861F0
:100530007264636F6465642044656661756C7420E1
:1005400053657474696E6773204C6F6164656400F1
:100550006563686F3A002F2F616374696F6E3A00AC
:100560006572726F722077726974696E6720746F3A
:100570002066696C6500446F6E6520736176696EF4
:10058000672066696C652E006F6B004D3239002262
:1005900000656E717565696E6720220020403A0023
:1005A0002042403A00202F0020423A00202F002015
:1005B000543A0043617264206572726F723A004E61
:1005C0006F74205344207072696E74696E67002FD7
:1005D000005344207072696E74696E67206279748A
:1005E0006520002E0044656C6574696F6E2066613D
:1005F000696C65642C2046696C653A200046696C1C
:10060000652064656C657465643A002E006F7065E2
:100610006E206661696C65642C2046696C653A20C1
:10062000006F6B000D0A003F0054696E6B65725FCE
:1006300031382E30382D444556000D0A00556E6B6A
:100640006E6F776E20636F6D6D616E643A2000543B
:100650004553540D0A002200556E6B6E6F776E2065
:10066000636F6D6D616E643A202200456C65637442
:10067000726F6E6963735F7465737400416374694C
:1006800076652045787472756465723A2000496E0B
:1006900076616C6964206578747275646572005463
:1006A0000020423A300020423A31006F6B20523A2B
:1006B00000726573756D650020643A0020693A0028
:1006C00020703A006F6B0020643A0020693A0020E5
:1006D000703A006F6B002200556E6B6E6F776E2064
:1006E000636F6D6D616E643A202200545249474732
:1006F00045524544006F70656E007A5F6D61783ACF
:100700002000545249474745524544006F70656E7A
:1007100000795F6D61783A2000545249474745524D
:100720004544006F70656E00785F6D696E3A200019
:100730005265706F7274696E6720656E6473746F52
:100740007020737461747573004649524D5741525D
:10075000455F4E414D453A4D61726C696E20556C56
:1007600074696D616B6572323B20537072696E748F
:1007700065722F6772626C206D6173687570206698
:100780006F722067656E36204649524D574152457B
:100790005F55524C3A687474703A2F2F67697468C9
:1007A00075622E636F6D2F556C74696D616B657228
:1007B0002050524F544F434F4C5F56455253494F70
:1007C0004E3A312E30204D414348494E455F5459F1
:1007D00050453A556C74696D616B6572204558548B
:1007E00052554445525F434F554E543A310A0045E5
:1007F0003A005A3A00593A0020436F756E742058F7
:100800003A2000453A005A3A00593A00583A003F17
:100810000020573A002569206D696E2C202569203B
:1008200073656300456E642066696C65206C69734E
:100830007400426567696E2066696C65206C697337
:100840007400726573756D65007061757365005233
:100850006573656E643A20006F6B00473120463146
:10086000323030302058256920592569005072698E
:100870006E7465722068616C7465642E206B696C9F
:100880006C28292063616C6C656421005072696E6C
:100890007465722073746F70706564206475652070
:1008A000746F206572726F72732E2046697820749F
:1008B0006865206572726F7220616E642075736561
:1008C000204D39393920746F2072657374617274E8
:1008D0002E202854656D706572617475726520698B
:1008E000732072657365742E2053657420697420BB
:1008F00061667465722072657374617274696E6783
:1009000029004D31303920496E76616C696420656B
:100910007874727564657220004D31303520496EEF
:1009200076616C6964206578747275646572200004
:100930004D31303420496E76616C6964206578747D
:1009400072756465722000456E6473746F702073F5
:1009500074696C6C20707265737365642061667471
:100960006572206261636B696E67206F66662E2018
:10097000456E6473746F7020737475636B3F000011
:1009800000E0400000E0400000E040456E64737409
:100990006F70206E6F742070726573736564206170
:1009A0006674657220686F6D696E6720646F776E1C
:1009B0002E20456E6473746F702062726F6B656E6B
:1009C0003F00456E6473746F70206E6F7420707298
:1009D000657373656420616674657220686F6D6904
:1009E0006E6720646F776E2E20456E6473746F702F
:1009F0002062726F6B656E3F004572726F723A00D3
:100A0000FF010100002110422063308440A550C640
:100A100060E770088129914AA16BB18CC1ADD1CE3C
:100A2000E1EFF13112100273325222B5529442F7C3
:100A300072D662399318837BB35AA3BDD39CC3FF8C
:100A4000F3DEE36224433420040114E664C774A493
:100A50004485546AA54BB528850995EEE5CFF5ACDC
:100A6000C58DD55336722611163006D776F66695A3
:100A700056B4465BB77AA719973887DFF7FEE79D2C
:100A8000D7BCC7C448E5588668A7784008611802F3
:100A9000282338CCC9EDD98EE9AFF9488969990A7C
:100AA000A92BB9F55AD44AB77A966A711A500A3303
:100AB0003A122AFDDBDCCBBFFB9EEB799B588B3BCC
:100AC000BB1AABA66C877CE44CC55C222C033C6053
:100AD0000C411CAEED8FFDECCDCDDD2AAD0BBD681C
:100AE0008D499D977EB66ED55EF44E133E322E51E3
:100AF0001E700E9FFFBEEFDDDFFCCF1BBF3AAF596C
:100B00009F788F8891A981CAB1EBA10CD12DC14EDC
:100B1000F16FE18010A100C230E32004502540466F
:100B2000706760B9839893FBA3DAB33DC31CD37F8E
:100B3000E35EF3B1029012F322D2323542145277BF
:100B4000625672EAB5CBA5A89589856EF54FE52C5E
:100B5000D50DC5E234C324A014810466744764240F
:100B6000540544DBA7FAB79987B8975FE77EF71D6E
:100B7000C73CD7D326F2369106B01657667676155F
:100B80004634564CD96DC90EF92FE9C899E9898ABE
:100B9000B9ABA94458654806782768C018E10882AF
:100BA00038A3287DCB5CDB3FEB1EFBF98BD89BBBCE
:100BB000AB9ABB754A545A376A167AF10AD01AB3FF
:100BC0002A923A2EFD0FED6CDD4DCDAABD8BADE81E
:100BD0009DC98D267C076C645C454CA23C832CE04F
:100BE0001CC10C1FEF3EFF5DCF7CDF9BAFBABFD9AE
:100BF0008FF89F176E367E554E745E932EB23ED19F
:100C00000EF01E7C3C3E5E2B3D3F2F5B5D3B2C2A55
:100C1000225C00476F20746F3A00737570706F72BA
:100C20007400455230370058206F72205920737776
:100C30006974636820737475636B004552303700C4
:100C400058206F722059207377697463682062722C
:100C50006F6B656E0045523036005A2073776974A9
:100C6000636820737475636B0045523035005A20F9
:100C70007377697463682062726F6B656E004552AA
:100C800030340053616665747920636972637569F5
:100C90007400455230330048656174657220657296
:100CA000726F7200455230320054656D702073656A
:100CB0006E736F72204245440045523031005465D6
:100CC0006D702073656E736F72004552524F5220E3
:100CD0002D2053544F5050454400756C74696D611C
:100CE0006B65722E636F6D2F0054696E6B65725F5A
:100CF00031382E30382D444556008015060606063C
:100D0000FEFEFEFEFC00000000000000FCFEFEFEF9
:100D1000FC0000000EFEFEFEFE0000E0FCFEFEFCFD
:100D2000E0E0000000CECECE000000C0C0C0C0C0D9
:100D3000C08000000000000080C0C08000000000F3
:100D400000008080C0C0C0C0C0C0C0808000000063
:100D50000006FEFEFEFE0000000080C0C0C00000D5
:100D6000000000008080C0C0C080808000000000C3
:100D7000C0C0C0C00080C0C0C0C080000000000073
:100D80007FFFFFFFFF80000000000080FFFFFFFFEC
:100D9000FF00000000FFFFFFFF000000FFFFFFFF5C
:100DA0000000000000FFFFFF00000081F1FFFF3F97
:100DB0000F3FFFFCF0F0FCFF3F0F3FFFFEF880000D
:100DC0000000C1E1F1F17131010183FFFFFFFC007F
:100DD0000000FFFFFFFF000C3EFFFFF7C301000014
:100DE00000FCFEFF8703113131333F3F3F1E0000FF
:100DF00001FFFFFFFF0703010101010000000000E8
:100E000000010307070F0F0F0F0F0F0F0707070F43
:100E10000F06000000070F0F07000000070F0F0765
:100E200000000000000F0F0F0000060F0F07010069
:100E3000000001070F0F070100000001070F0F0658
:100E4000000003070F0F0E0E060703070F0F070022
:100E50000000070F0F0700000000030F0F0F060030
:100E600000000307070F0E0E0E0E0E0E0600000008
:100E7000000F0F0F0F0000000000000043414E4321
:100E8000454C00507265763A20004300432F0048DD
:100E9000656174696E67207072696E7468656164FB
:100EA0000011150A000019151200000609090600B4
:100EB000000000000000005F0000000700070014B1
:100EC0007F147F14242A7F2A122313086462364970
:100ED0005522500005030000001C22410000412261
:100EE0001C00082A1C2A0808083E08080050300088
:100EF00000080808080800606000002010080402CC
:100F00003E5149453E00427F4000426151494621E1
:100F100041454B311814127F1027454545393C4A4D
:100F2000494930017109050336494949360649499D
:100F3000291E003636000000563600000008142234
:100F4000411414141414412214080002015109061A
:100F5000324979413E7E1111117E7F494949363E21
:100F6000414141227F4141221C7F494949417F093A
:100F70000901013E414151327F0808087F00417F4D
:100F800041002040413F017F081422417F40404002
:100F9000407F0204027F7F0408107F3E4141413EB2
:100FA0007F090909063E4151215E7F0919294646FC
:100FB0004949493101017F01013F4040403F1F2025
:100FC00040201F7F2018207F6314081463030478D7
:100FD0000403615149454300007F41410204081068
:100FE0002041417F00000402010204404040404093
:100FF000000102040020545454787F484444383897
:1010000044444420384444487F3854545418087E9B
:10101000090102081454543C7F0804047800447DFC
:1010200040002040443D00007F10284400417F40A4
:10103000007C041804787C0804047838444444385C
:101040007C14141408081414187C7C080404084840
:1010500054545420043F4440203C4040207C1C20F9
:1010600040201C3C4030403C44281028440C505048
:10107000503C4464544C44000836410000007F005A
:1010800000004136080008082A1C08081C2A080825
:101090004D61782E205370656564006D6D2F73006F
:1010A000582F59204A65726B004D61782E20582FB9
:1010B00059204A65726B006D6D2F731E004163638A
:1010C000656C00416363656C65726174696F6E0085
:1010D0004241434B004241434B00436C69636B20E8
:1010E000746F2072657475726E0053544F524500D0
:1010F00053746F72652073657474696E6773004111
:101100006363656C65726174696F6E006F6666001B
:1011100020736563004D61782E20706F77657200D3
:10112000506572696F64206F66206D61782E207043
:101130006F776572006F666600206D696E00546996
:101140006D656F75740049646C652074696D656FB9
:101150007574004241434B004241434B00436C696C
:10116000636B20746F2072657475726E0053544FF8
:1011700052450053746F7265206F7074696F6E739F
:101180000048656174657220636865636B00434164
:101190004E43454C0054696D656F75740066616916
:1011A0006C65642100504944204175746F74756EFC
:1011B000650054656D706572617475726520746F39
:1011C0006F2068696768006661696C65642100501A
:1011D0004944204175746F74756E650074686520AC
:1011E00073657474696E67732E00596F752063613F
:1011F0006E2073746F72650066696E6973686564EA
:101200002100504944204175746F74756E65004328
:101210004F4E54494E5545001F001F2F004275691F
:101220006C64706C61746500457874727564657285
:10123000001F001F2F002F002E00504944207475FE
:101240006E696E67004379636C65730074756E69CF
:101250006E67206379636C6573001F0054656D7061
:10126000657261747572650074756E696E6720745D
:10127000656D7065726174757265004241434B0023
:101280004241434B00436C69636B20746F2072656D
:101290007475726E005354415254005374617274E9
:1012A00020504944206175746F74756E6500504913
:1012B000442074756E65206F7074696F6E7300459D
:1012C00078747275646572004275696C64706C61E3
:1012D0007465004B64004465726976617469766573
:1012E00020636F6566662E004B6900496E74656702
:1012F00072616C20636F656666696369656E740010
:101300004B700050726F706F7274696F6E616C20F9
:10131000636F6566662E004241434B004241434B7A
:1013200000436C69636B20746F2072657475726E14
:10133000004155544F005374617274205049442049
:101340006175746F74756E650053544F5245005348
:10135000746F7265205049442073657474696E67B8
:1013600073005049442073657474696E6773004557
:1013700078747275646572004B64004465726976B6
:10138000617469766520636F6566662E004B69003F
:10139000496E74656772616C20636F656666696328
:1013A00069656E74004B700050726F706F72746973
:1013B0006F6E616C20636F6566662E004275696CA6
:1013C000642D7C706C61746500504944206D6F64BD
:1013D00065004241434B004241434B00436C69630B
:1013E0006B20746F2072657475726E004155544F96
:1013F00000537461727420504944206175746F7495
:10140000756E650053544F52450053746F726520DA
:101410005049442073657474696E67730050494481
:101420002073657474696E677300504944206F6659
:10143000660052455455524E004255494C442D7C4D
:10144000504C415445004558545255444552003C77
:10145000204241434B003C2052455455524E004ED1
:101460006F20696E666F20617661696C61626C6580
:10147000004E6F7A7A6C6520006D006D004D6174CE
:10148000657269616C200068006D696E0054696D59
:101490006520003B4D545950453A003B4E4F5A5A37
:1014A0004C455F4449414D455445523A003B4D41FE
:1014B00054455249414C3A003B54494D453A004647
:1014C0006F6C6465720043616E6E6F7420656E743C
:1014D0006572207375626469723A20005344204338
:1014E00041524400473120463132303030205825B7
:1014F0006920592569003B464C41564F523A556C7C
:10150000746947436F6465003B464C41564F523AFD
:10151000556C746947436F6465004E6F2066696C53
:10152000657320666F756E6421004F4B004F4B0052
:1015300052656164696E6720636172642E2E2E00AD
:10154000506C6561736520696E73657274206361A8
:101550007264004E6F2053442D4341524421005089
:101560007265706172696E6720746F207072696E47
:10157000743A0048656174696E672075702E2E2E6E
:101580000041424F52540054554E4500207365634C
:1015900000206D696E0020686F75720020686F759D
:1015A00072730054696D65206C6566740054696DD2
:1015B00065206C65667420756E6B6E6F776E004388
:1015C00000432F0048656174696E67206275696C1D
:1015D00064706C617465004300432F00486561745A
:1015E000696E67005072696E74696E673A005041A7
:1015F0005553450054554E4500756C74696D616BCB
:1016000065722E636F6D2F4552303800476F20741E
:101610006F3A0072656164696E672053442D63619F
:10162000726421004572726F72207768696C650080
:1016300052455455524E20544F204D41494E006F53
:1016400066207072696E74696E67206172656100F0
:101650005472696564207072696E74696E67206F78
:101660007574004552524F523A0052455455524EED
:1016700020544F204D41494E0066726F6D207468B2
:101680006520736C696365722E0073657474696E8E
:101690006720776974682073657474696E67006F7A
:1016A00076657272696465206D616368696E650054
:1016B000546869732066696C652077696C6C0043B7
:1016C000414E43454C00434F4E54494E554500252D
:1016D00073207673202573006D6174657269616C87
:1016E0002E00666F72206120646966666572656EA1
:1016F0007400546869732066696C6520697320639F
:101700007265617465640043414E43454C00434F2C
:101710004E54494E55450041626F7274696E672E92
:101720002E2E0041626F7274207468652070726999
:101730006E743F004E4F00594553005072696E74ED
:101740002066696E6973686564005072696E7465BD
:101750007220636F6F6C696E6720646F776E0043F1
:101760000043200068006D696E0054696D652000BB
:101770004241434B20544F204D454E5500536C651C
:1017800065702074696D6572003F3F3F004D6F7654
:1017900065206D6174657269616C004C454420423E
:1017A00072696768746E6573730052657472616301
:1017B00074696F6E004D6174657269616C20666C4E
:1017C0006F770046616E20737065656400427569CD
:1017D0006C64706C6174652074656D702E00546566
:1017E0006D70657261747572650053706565640033
:1017F0003C2052455455524E0025002500250043FB
:1018000000432F004300432F0025004300432F00D7
:10181000436C69636B20746F2072657475726E001F
:101820004E6F7A7A6C652074656D7065726174753F
:1018300072650025004272696768746E6573730093
:1018400025004D6174657269616C20666C6F77006C
:10185000250046616E207370656564002500507236
:10186000696E742073706565640054554E45003F81
:101870003F3F00456E64206F66207072696E742071
:101880006C656E677468005265747261637420736E
:10189000706565640052657472616374206C656E76
:1018A000677468003C2052455455524E006D6D00DF
:1018B0006D6D2F736563006D6D006D6D00456E6419
:1018C000206F66207072696E742072657472616335
:1018D00074006D6D2F73656300526574726163747B
:1018E000207370656564006D6D005265747261638C
:1018F00074206C656E6774680052455452414354BD
:10190000494F4E004D3630312058257520592575E8
:10191000205A2575204C2575004241434B00424119
:10192000434B0054554E450054554E450041424FDF
:1019300052547C0005083E3E003E3E504155534502
:101940007C0041424F52540041424F525400545582
:101950004E450054554E45004D4154455249414C69
:10196000004348414E47450007081C224A524C207C
:101970001F4D4154455249414C004348414E474553
:101980000005087F7F3E1C08524553554D457C009D
:1019900050415553494E477C0020746F6F206C6F47
:1019A0006E6720657874727573696F6E20707265EA
:1019B00076656E7465640020636F6C64206578746E
:1019C000727573696F6E2070726576656E7465648A
:1019D000006563686F3A00570045787472756465F6
:1019E000720057617474616765204578747275641C
:1019F00065720057004275696C64706C61746500B3
:101A000057617474616765204275696C64706C61BC
:101A10007465005700546F74616C00546F74616C8E
:101A200020506F776572204275646765740042418B
:101A3000434B004241434B00436C69636B20746F1E
:101A40002072657475726E0053544F524500537482
:101A50006F7265206F7074696F6E7300506F776579
:101A6000722042756467657400205A3A0020593A22
:101A70000020583A00656E6473746F707320686953
:101A8000743A20006563686F3A0024F4D43050C380
:101A90008E20C2A24017828B7011127A910D816C38
:101AA000D90AA861E108C7586607615143061E4B71
:101AB0005D05C145A7041A411104093D9803713918
:101AC00031034036DB0265339102D4305402802E5C
:101AD0001D02632CEE01752AC501B028A001102754
:101AE00081018F2564012B244B01E0223401AC21BC
:101AF0001F018D200D01801FFC00841EED00971D2D
:101B0000DF00B81CD200E61BC600201BBC00641A14
:101B1000B200B219A8000A19A0006A189900D117DA
:101B2000910040178B00B516840031167E00B31566
:101B300079003A157300C7146F0058146A00EE1349
:101B400066008813630025135E00C7125B006C12E9
:101B5000570015125400C111510070114F0021118E
:101B60004B00D61049008D1047004610440002106B
:101B70004200C00F4000800F3E00420F3C00060FA5
:101B80003B00CB0E3800930E37005C0E3500270E5D
:101B90003400F30D3200C10D3100900D3000600DA6
:101BA0002E00320D2D00050D2C00D90C2B00AE0C93
:101BB0002900850C29005C0C2700350C27000E0C31
:101BC0002600E80B2400C40B2400A00B23007D0B8F
:101BD00023005A0B2100390B2100180B2000F80AB2
:101BE0001F00D90A1E00BB0A1E009D0A1D00800AA4
:101BF0001D00630A1C00470A1B002C0A1B00110A67
:101C00001A00F7091A00DD091900C4091900AB0907
:101C10001900920917007B091800630917004C0985
:101C2000160036091600200916000A091500F508E5
:101C30001500E0081400CC081400B8081400A4082B
:101C40001400900813007D0812006B081300580858
:101C5000120046081200340811002308110012086F
:101C6000110001081100F0071000E0071000D00774
:101C70001000C0071000B0070F00A1071000910767
:101C80000E0083070F0074070F0065070E0057074B
:101C90000E0049070E003B070D002E070E0020071F
:101CA0000D0013070D0006070D00F9060C00ED06E8
:101CB0000D00E0060C00D4060C00C8060C00BC06A3
:101CC0000C00B0060C00A4060B0099060C008D0653
:101CD0000B0082060B0077060B006C060B006106FA
:101CE0000A0057060B004C060A0042060A00380696
:101CF0000A002E060A0024060A001A060A00100628
:101D0000090007060A00FD050900F4050900EB05B6
:101D10000900E2050900D9050900D0050900C70539
:101D20000900BE050900B5050800AD050800A505B8
:101D300009009C050800940508008C05080084052E
:101D400008007C050800740508006C05070065059F
:101D500008005D050700560508004E050700470509
:101D600007004005080038050700310507002A056F
:101D70000700230507001C050600160507000F05D0
:101D800007000805060002050700FB040600F5042D
:101D90000700EE040600E8040600E2040700DB0486
:101DA0000600D5040600CF040600C9040600C304DB
:101DB0000600BD040600B7040600B1040500AC042B
:101DC0000600A6040600A00405009B040600950476
:101DD0000500900406008A040500850405008004BF
:101DE00006007A04050075040500700405006B0404
:101DF000050066040500610405005C040500570445
:101E00000500520405004D04050048040500430484
:101E100005003E0404003A040500350405003004C2
:101E200004002C04050027040400230405001E04FC
:101E300004001A04040016040500110404000D0433
:101E40000400090405000404040000040400FC0369
:101E50000400F8030400F4030400F0030400EC039E
:101E60000400E8030400E4030400E0030400DC03CE
:101E70000400D8030400D4030400D0030400CC03FE
:101E80000400C8030300C503030024F404D9201B85
:101E9000C40C5C0E9804C4095F0265077101F40567
:101EA000F900FB04B30048048700C103690058032C
:101EB000550003034500BE023A008402310053027C
:101EC0002A002902250004022000E4011C00C801A8
:101ED0001900AF011700980114008401130071016B
:101EE00010006101100051010E0043010D00360188
:101EF0000B002B010B0020010B00150109000C0148
:101F0000090003010800FB000800F3000800EB00D3
:101F10000700E4000600DE000600D8000600D2003C
:101F20000600CC000500C7000500C2000500BD008A
:101F30000400B9000400B5000400B1000400AD00C5
:101F40000400A9000400A5000300A20003009F00F4
:101F500004009B000300980003009500020093001A
:101F60000300900003008D0002008B000300880036
:101F700002008600020084000300810002007F004E
:101F800002007D0002007B00020079000200770061
:101F9000010076000200740002007200010071006E
:101FA00002006F0002006D0001006C0002006A0078
:101FB0000100690002006700010066000100650081
:101FC0000100640002006200010061000100600085
:101FD00001005F0002005D0001005C0001005B0089
:101FE00001005A000100590001005800010057008B
:101FF000010056000100550001005400010053008B
:102000000000530001005200010051000100500087
:1020100001004F0001004E0000004E0001004D0085
:1020200001004C0001004B0000004B0001004A0081
:10203000010049000100480000004800010047007D
:102040000100460000004600010045000000450078
:102050000100440001004300000043000100420071
:10206000000042000100410000004100010040006A
:1020700001003F0000003F0001003E0000003E0064
:1020800001003D0000003D0001003C0000003C005C
:1020900000003C0001003B0000003B0001003A0052
:1020A00000003A000100390000003900010038004A
:1020B0000000380000003800010037000000370041
:1020C0000100360000003600000036000100350037
:1020D000000035000000350001003400000034002D
:1020E0000000340001003300000033000000330022
:1020F0000100320000003200000032000100310017
:10210000000031000000310001003000000030000C
:102110000000300001002F0000002F0000002F0001
:1021200000002F0001002E0000002E0000002E00F5
:1021300001002D0000002D0000002D0000002D00EA
:1021400001002C0000002C0000002C0000002C00DE
:1021500001002B0000002B0000002B0000002B00D2
:1021600001002A0000002A0000002A0000002A00C6
:1021700001002900000029000000290000002900BA
:1021800000002900010028000000280000002800AD
:1021900000002800000028000100270000002700A0
:1021A0000000270000002700000027000100260093
:1021B0000000260000002600000026000000260087
:1021C000010025000000250000002500000025007A
:1021D000000025000000250001002400000024006C
:1021E000000024000000240000002400010023005F
:1021F0000000230000002300000023000000230053
:102200000000230000002300010022000000220043
:102210000000220000002200000022000000220036
:102220000100210000002100000021000000210029
:10223000000021000000210000002100010020001A
:10224000000020000000200000002000000020000E
:1022500000002000000020000000200001001F00FE
:1022600000001F0000001F0000001F0000001F00F2
:1022700000001F0000001F0001001E0000001E00E3
:1022800000001E0000001E0000005049442041755F
:10229000746F74756E652061626F727465642E0070
:1022A000504944204175746F74756E652066696E7F
:1022B0006973686564212050757420746865204BCB
:1022C000702C204B6920616E64204B6420636F6E1C
:1022D0007374616E747320696E746F20436F6E66E1
:1022E000696775726174696F6E2E68005049442089
:1022F0004175746F74756E65206661696C656421E3
:102300002074696D656F75740020403A006F6B2012
:10231000543A006F6B20423A005049442041757492
:102320006F74756E65206661696C65642120546503
:102330006D706572617475726520746F6F20686965
:10234000676800204B643A2000204B693A20002047
:102350004B703A200020436C6173736963205049CD
:102360004420002054753A2000204B753A2000206C
:102370006D61783A2000206D696E3A200020643A41
:10238000200020626961733A200050494420417561
:10239000746F74756E652073746172740050494473
:1023A000204175746F74756E65206661696C656433
:1023B0002E20426164206578747275646572206EA7
:1023C000756D6265722E003A204578747275646589
:1023D00072207377697463686564206F66662E2067
:1023E0004D415854454D5020747269676765726558
:1023F000642021003A2045787472756465722073F8
:1024000077697463686564206F66662E204D494E57
:1024100054454D5020747269676765726564202168
:102420000054656D706572617475726520686561D0
:102430007465642062656420737769746368656499
:10244000206F66662E204D415854454D50207472C1
:1024500069676765726564202121001F001F001FE6
:102460002F004275696C64706C61746520001F00F8
:102470001F001F2F004E6F7A7A6C65200041424F7B
:1024800052540041424F52540041626F72742070A6
:1024900072696E740054554E450054554E450054B3
:1024A000756E65206D656E75001F001F001F2F0083
:1024B0004275696C64706C6174652000050826348F
:1024C000081632250046616E001F001F001F2F00F6
:1024D0004E6F7A7A6C65200025006D6D2F73005366
:1024E00070656564200025006D6D1D2F7300466CBE
:1024F0006F7720000B0808080808080808083E1C29
:1025000008476F746F2070616765203200436F6EFB
:1025100074726F6C206F7074696F6E7300546F67A4
:10252000676C65204C4544006D6D2F7300582F5922
:10253000204A65726B004D61782E20582F59204A31
:1025400065726B006D6D2F731E00416363656C00D7
:10255000416363656C65726174696F6E006D6D2FA8
:10256000730007087F7F5155457F7F526574726104
:102570006374207370656564006D6D0007087F7F6C
:10258000415F5F7F7F52657472616374005265744E
:1025900072616374206C656E677468000808098254
:1025A000F88484F88209546F67676C65204C454451
:1025B00000436F6E74726F6C206F7074696F6E730E
:1025C0000007086070381E0908040B08081C3E0844
:1025D00008080808080808476F746F20706167656D
:1025E0002031001F002F000708404A55404A55403F
:1025F0001F002F00250048656174696E67207570A3
:102600002E2E2E200055534220636F6D6D756E691E
:10261000636174696F6E2E2E2E0048656174696E59
:1026200067206275696C64706C61746500486561EF
:1026300074696E67206E6F7A7A6C65005A0050611B
:102640007573696E672E2E2E00436C69636B207460
:102650006F20636F6E74696E75652E2E2E0050614B
:10266000757365642E2E2E00250007081C3E7F71B1
:10267000773E1C50617573696E672E2E2E00506177
:10268000757365642E2E2E0007087F5D4941495DF4
:102690007F3F3F3F0044697361626C6520737465DE
:1026A0007070657273005265636F76657220707228
:1026B000696E740041646A757374205A20706F7378
:1026C0006974696F6E004D6F76652061786973007B
:1026D0003C2052455455524E004D3834205830203D
:1026E0005930006D6D005A0043414E43454C005334
:1026F000544F524500746865206275696C64706C53
:10270000617465006E6F7A7A6C6520746F756368AA
:102710006573004D6F7665205A20756E74696C2064
:10272000746865004D3834205830205930004731E6
:1027300020462569205A2569205825692059256990
:1027400000473238205A3020583020593000627506
:1027500074746F6E20746F20636F6E74696E75652C
:1027600000556C74696D616B6572212050726573E0
:1027700073207468650073746172747570206F667D
:1027800020796F75720057656C636F6D6520746F8B
:102790002074686520666972737400312F323100CD
:1027A000434F4E54494E5545004731204625692038
:1027B0005A25692058256920592569004732382053
:1027C0005A30205830205930006275696C64706C42
:1027D0006174652E006F662061646A757374696E3A
:1027E0006720796F7572007468726F7567682074FE
:1027F00068652070726F6365737300492077696C38
:102800006C20677569646520796F750043414E439C
:10281000454C00434F4E54494E55450047312046E4
:102820002569205A256900612066697273742072D7
:10283000756E2077697A6172642E0077616C6B2007
:10284000796F75207468726F756768006669727356
:1028500074207374617274757020492077696C6C90
:1028600000426563617573652074686973206973DC
:102870002074686500322F323100434F4E54494E68
:10288000554500473120462569205A25692058259D
:10289000692059256900676F696E6720746F20642D
:1028A0006F2074686174206E6F772E0061646A75A2
:1028B00073746D656E74732C20776520617265008A
:1028C0007765206E65656420746F20646F20736F78
:1028D0006D65004166746572207472616E73706F0D
:1028E00072746174696F6E00332F323100434F4E42
:1028F00054494E554500473120462569205A30003D
:102900004731204625692058256920592569004707
:102910003120462569205A350066726F6D20746833
:1029200065206275696C64706C6174652E0061204D
:102930006D696C6C696D6574657220617761790091
:10294000756E74696C20746865206E6F7A7A6C6538
:1029500020697300526F7461746520746865206229
:102960007574746F6E00342F323100434F4E5449EA
:102970004E554500434F4E54494E55450047312072
:10298000462569205A3000473120462569205825C0
:10299000692059256900473120462569205A3500AC
:1029A00066726F6D20746865206275696C64706C06
:1029B0006174652E0069732061206D696C6C696DAE
:1029C0006574657220617761790073637265772041
:1029D00074696C6C20746865206E6F7A7A6C65001F
:1029E0005475726E206C656674206275696C6470D3
:1029F0006C61746500352F323100434F4E54494E9F
:102A000055450066726F6D20746865206275696C4B
:102A100064706C6174652E0069732061206D696C4F
:102A20006C696D657465722061776179007363729A
:102A300065772074696C6C20746865206E6F7A7A93
:102A40006C65005475726E207269676874206275D7
:102A5000696C64706C61746500362F323100434FCD
:102A60004E54494E554500473120462569205A307D
:102A700000473120462569205825692059256900DD
:102A8000473120462569205A3500746865206275F3
:102A9000696C64706C617465206C6576656C2E0081
:102AA000706170657220746F2066696E652D747533
:102AB0006E65006E6F7720757365206120736865A1
:102AC0006574206F66005265706561742074686972
:102AD0007320737465702C2062757400372F323147
:102AE00000434F4E54494E5545006269742072654B
:102AF00073697374616E63652E00756E74696C2002
:102B0000796F75206665656C2061006275696C641B
:102B1000706C61746520616E64206E6F7A7A6C658A
:102B200000536C6964652061207061706572206279
:102B300065747765656E00382F323100434F4E540F
:102B4000494E554500434F4E54494E554500746813
:102B500065206C65667420636F726E65722E2E2E12
:102B600000526570656174207468697320666F72C5
:102B700000392F323100434F4E54494E55450074B1
:102B8000686520726967687420636F726E65722E63
:102B90002E2E00526570656174207468697320661A
:102BA0006F720031302F323100434F4E54494E5531
:102BB0004500444F4E45004D3834004731204625EE
:102BC00069205825692059256900746F20696E7342
:102BD000657274206D6174657269616C2E00746831
:102BE00065206E6578742073746570206973007455
:102BF0006865206275696C64706C617465004E6F05
:102C0000772074686174207765206C6576656C65E3
:102C1000640031312F323100434F4E54494E5545F7
:102C200000556C74696D616B6572322E00696E734C
:102C300065727420696E2074686973006D617465D3
:102C40007269616C20796F752077696C6C004E65D4
:102C500078742C2073656C6563742074686500312A
:102C6000322F32310052454144590053656C65633F
:102C70007420746865206D6174657269616C0020F0
:102C80006173206D6174657269616C2C0031332F42
:102C90003231004D4154455249414C006973207412
:102CA0006869732072696768743F00596F7520689E
:102CB0006176652063686F73656E0031342F323141
:102CC000004E4F0059455300697420697320757395
:102CD000696E672E006F66206D6174657269616C44
:102CE000006B6E6F77732077686174206B696E6418
:102CF000004E6F7720796F757220556C74696D6125
:102D00006B6572320031352F323100434F4E5449DA
:102D10004E5545006D6174657269616C206C6F6120
:102D200064696E67007072696E74686561642068BA
:102D3000656174696E6720666F7200506C656173BF
:102D40006520776169742C0031362F323100616261
:102D50006F766520746865206172726F772E0079D6
:102D60006F757220556C74696D616B6572322C00E1
:102D700066726F6D207468652072656172206F667F
:102D800000496E73657274206E6577206D6174659D
:102D90007269616C0031372F323100434F4E544914
:102DA0004E5545004C6F6164696E67206D617465B6
:102DB0007269616C2E2E2E0031382F32310066720E
:102DC0006F6D206E6F7A7A6C652E2E2E006D617499
:102DD000657269616C2065786974730050757368F9
:102DE00020627574746F6E207768656E0031392FBC
:102DF000323100434F4E54494E5545006D616B656D
:102E00002061203344205072696E74210049276D7F
:102E1000207265616479206C657427730032302FED
:102E200032310041524520594F55205245414459B5
:102E30003F0052656164696E6720636172642E2E83
:102E40002E0032312F323100746F207072696E742F
:102E50002069742100616E64207072657373207440
:102E6000686520627574746F6E006F6E207468659B
:102E70002053442D636172640053656C6563742054
:102E800061207072696E742066696C650032312F42
:102E90003231004C45542753205052494E5400794A
:102EA0006F757220556C74696D616B6572322E2E70
:102EB0002E00746861742063616D652077697468A1
:102EC00000506C6561736520696E73657274205380
:102ED000442D636172640032312F3231001F001FB4
:102EE000001F2F004275696C64706C61746520006E
:102EF0001F001F001F2F004E6F7A7A6C6520006F35
:102F00006666006F6E004275696C64706C61746512
:102F10003A20006F6666006F6E004E6F7A7A6C65BD
:102F20003A20004241434B004241434B00526574FA
:102F300075726E20746F206D61696E206D656E759F
:102F400000434F4F4C00434F4F4C00436F6F6C207A
:102F5000646F776E20616C6C005052494E54005083
:102F600052494E54005374617274207072696E74C9
:102F70000050726568656174001F002F001F002FEC
:102F8000004D4154455249414C004D41494E544534
:102F90004E414E4345005052494E54004348414E25
:102FA0004745004D4F56450053455454494E4753ED
:102FB00000414456414E434544005052494E54004E
:102FC00050524548454154004D4154455249414CA9
:102FD0000053544152540052455455524E004144FE
:102FE00056414E434544004255494C442D7C504C7B
:102FF000415445003F3F3F0045787065727420663C
:10300000756E6374696F6E730041646A75737420C2
:103010006275696C64706C617465005365742066D8
:10302000616E207370656564004D6F7665206D611B
:1030300074657269616C00496E73657274206D61AC
:1030400074657269616C00526169736520627569AB
:103050006C64706C617465004C6F7765722062758A
:10306000696C64706C61746500486F6D652068659B
:10307000616400486561747570206275696C647084
:103080006C61746500486561747570206E6F7A7A42
:103090006C6500507265666572656E636573003CB1
:1030A0002052455455524E0025004300432F004303
:1030B00000432F003F3F3F00466163746F727920E9
:1030C00072657365740052756E74696D65207374F2
:1030D0006174730056657273696F6E00506F776527
:1030E0007220627564676574005072696E74206145
:1030F000726561004D6F74696F6E207365747469D9
:103100006E67730052657472616374696F6E2073C9
:10311000657474696E67730054656D70657261746F
:1031200075726520636F6E74726F6C0048656174B0
:1031300065722074696D656F75740053637265659F
:103140006E20636F6E747261737400536C6565708A
:103150002074696D6572005363726F6C6C206669D0
:103160006C656E616D657300436C69636B20736F92
:10317000756E64004C45442073657474696E6773A2
:10318000005573657220696E7465726661636500CF
:103190003C2052455455524E0054696E6B65725F27
:1031A00031382E30382D444556006F666600730066
:1031B0006F6666202F20006D696E202F200025008D
:1031C00044697361626C656400456E61626C65643C
:1031D000005374616E646172640053686F7274208E
:1031E0007469636B004F66660025005374616E64FA
:1031F000617264204D6F6465004765656B204D6F9B
:103200006465004732382058302059300047323842
:10321000205A300047323800250046616E20737016
:10322000656564004731205A343000414456414EB0
:10323000434544004300432F00436C69636B207493
:103240006F2072657475726E004E6F7A7A6C6520AD
:1032500074656D70657261747572653A0043004300
:103260002F00436C69636B20746F207265747572F4
:103270006E00526F7461746520746F20657874728B
:10328000756465004E6F7A7A6C652074656D706543
:103290007261747572653A004300432F00436C6994
:1032A000636B20746F2072657475726E004275696D
:1032B0006C64706C6174652074656D702E3A005496
:1032C000696E6B65725F31382E30382D444556007B
:1032D00044656320323020323031392030303A3486
:1032E000353A31340052657475726E006D00204DB0
:1032F00061743A003A005072696E74696E673A0000
:103300003A004D616368696E65206F6E20666F726A
:103310003A0052657475726E00746F206465666160
:10332000756C743F005265736574206576657279BB
:103330007468696E67004E4F00594553003F3F3F28
:1033400000496E766572742061786973004178690E
:10335000732073746570732F6D6D004D6F746F7291
:103360002043757272656E74004D61782E2061780D
:10337000697320737065656400416363656C657291
:103380006174696F6E003C2052455455524E004D99
:103390004F54494F4E003F3F3F0020476C6F77200E
:1033A0007768656E20646F6E6500204F6E207768C9
:1033B000696C65207072696E74696E670020416C7B
:1033C00077617973204F66660020416C776179736D
:1033D000204F6E004272696768746E657373003CBB
:1033E0002052455455524E0025002500427269670F
:1033F00068746E657373004C4544003F3F3F00475F
:1034000065656B204D6F6465003E005374616E64AA
:10341000617264204D6F6465003E003C205245544B
:1034200055524E00203F3F3F004F6666003E00531E
:10343000686F7274207469636B003E005374616E30
:10344000646172642062656570003E003C205245F4
:103450005455524E005363726F6C6C2066696C65F4
:103460006E616D6573003E004E6F207363726F6C0A
:103470006C696E67003E003C2052455455524E0028
:103480005573657220696E74657266616365004389
:103490006C69636B20736F756E64005363726F6C3D
:1034A0006C2066696C656E616D6573002500436C08
:1034B00069636B20746F2072657475726E0053635C
:1034C0007265656E20636F6E747261737400505222
:1034D00045464552454E43455300473120462569F0
:1034E0002058256920592569004D38342058205925
:1034F00020450052455455524E0053455454494EB0
:103500004753004348414E474500666F72206D6146
:1035100074657269616C2072656D6F76616C0043D1
:103520006F6F6C696E67206E6F7A7A6C65004865A4
:103530006174696E67206E6F7A7A6C650052657689
:10354000657273696E67206D6174657269616C0084
:1035500052656D6F7665206D6174657269616C008E
:1035600043414E43454C005245414459006D6174FE
:10357000657269616C20696E73657274696F6E0043
:10358000436F6F6C696E67206E6F7A7A6C65206628
:103590006F720048656174696E67206E6F7A7A6C2D
:1035A0006520666F720061626F76652074686520C1
:1035B0006172726F772E00796F7572206D6163682A
:1035C000696E652C0066726F6D207468652062619B
:1035D000636B73696465206F6600496E736572740E
:1035E000206E6577206D6174657269616C0043417E
:1035F0004E43454C00524541445900466F72776135
:103600007264696E67206D6174657269616C0063D4
:103610006F6D6573206F757420746865206E6F7AA6
:103620007A6C6500576169742074696C6C206D61F7
:1036300074657269616C0043414E43454C005245CC
:1036400041445900250046616E3A20004300430082
:103650002500466C6F773A006D6D004D4154455220
:1036600049414C00696E204D4154455249414C2E10
:1036700054585400746F207468652053442063616B
:103680007264005361766564206D6174657269616E
:103690006C73004F6B000A006469616D657465723C
:1036A0003D000A00666C6F773D000A0066616E5F40
:1036B00073706565643D000A006265645F74656DE2
:1036C00070657261747572653D000A003D00746535
:1036D0006D70657261747572655F000A0074656D66
:1036E00070657261747572653D000A006E616D658A
:1036F0003D005B6D6174657269616C5D0A005265C5
:103700006164696E6720636172642E2E2E00506CB6
:103710006561736520696E7365727420636172649C
:10372000004E6F2053442D43415244210066726F76
:103730006D207468652053442063617264004C6F8F
:1037400061646564206D6174657269616C73004FBA
:103750006B0074656D70657261747572655F00648D
:1037600069616D6574657200666C6F770066616E85
:103770005F7370656564006265645F74656D706534
:103780007261747572650074656D706572617475CF
:103790007265006E616D65005B6D61746572696173
:1037A0006C5D00466F756E64206F6E20636172649D
:1037B0002E004E6F206578706F72742066696C659C
:1037C0000052656164696E6720636172642E2E2EFB
:1037D00000506C6561736520696E73657274206357
:1037E000617264004E6F2053442D434152442100C6
:1037F000496D706F72742066726F6D20534400457E
:1038000078706F727420746F205344004375737422
:103810006F6D697A65003C2052455455524E002523
:103820000046616E3A2000430043002500466C6F5D
:10383000773A006D6D004C6F61647320616C6C2091
:103840006D6174657269616C730053617665732094
:10385000616C6C206D6174657269616C73004D6F91
:1038600064696679207468652073657474696E672D
:1038700073004D4154455249414C0053656C65639A
:10388000746564206D6174657269616C3A004F4BB8
:10389000003F3F3F0053746F726520617320707268
:1038A0006573657400466C6F7720250046616E0075
:1038B0004469616D65746572004865617465642072
:1038C0006275696C64706C6174650054656D7065D7
:1038D000726174757265003C2052455455524E0019
:1038E000250025006D6D0043004320004320002586
:1038F000004D6174657269616C20666C6F7700259C
:103900000046616E207370656564006D6D004D61E9
:1039100074657269616C204469616D6574657200DB
:1039200043004275696C64706C6174652054656D08
:10393000702E004D4154455249414C0054656D7004
:10394000657261747572653A20003C205245545589
:10395000524E004300430054656D7065726174758A
:103960007265004D4154455249414C004E657720E7
:10397000707265736574003C2052455455524E0078
:103980005052455345545300435045004142530063
:10399000504C41002500476C6F77004C4544207324
:1039A0006C65657020676C6F770007087F6E6C78B8
:1039B0007267426F66660025004C434420736C6555
:1039C000657020636F6E7472617374005363726507
:1039D000656E006F6666006D696E005363726565A3
:1039E0006E2074696D656F7574000708492A1C7F25
:1039F0001C2A4925004C454420736C656570206283
:103A000072696768746E6573730007081C22414F02
:103A100049221C4C69676874006F6666006D696EA8
:103A2000004C45442074696D656F757400424143D4
:103A30004B004241434B00436C69636B20746F2021
:103A400072657475726E0053544F52450053746F13
:103A50007265206F7074696F6E7300536C6565706A
:103A60002074696D6572006D6D005A004D61786952
:103A70006D756D205A20636F6F7264696E61746535
:103A8000006D6D002D004D6178696D756D205920B8
:103A9000636F6F7264696E617465006D6D005900CB
:103AA0004D696E696D756D205920636F6F72646921
:103AB0006E617465006D6D002D004D6178696D75E6
:103AC0006D205820636F6F7264696E617465006D5C
:103AD0006D0058004D696E696D756D205820636FDB
:103AE0006F7264696E617465004241434B004241EC
:103AF000434B00436C69636B20746F20726574756F
:103B0000726E0053544F52450053746F72652061BA
:103B1000786973206C696D697473005072696E7492
:103B20002061726561004500452073746570732FD4
:103B30006D6D005A005A2073746570732F6D6D009F
:103B40005900592073746570732F6D6D00580058BB
:103B50002073746570732F6D6D004241434B0042BA
:103B600041434B00436C69636B20746F2072657432
:103B700075726E0053544F52450053746F72652036
:103B800073746570732F6D6D004178697320737461
:103B90006570732F6D6D006E6F00796573003A006C
:103BA000496E766572740045004578747275646577
:103BB00072005A005A005900590007081C2241415E
:103BC00041221C07081C3E7F7F7F3E1C5800580086
:103BD0004241434B004241434B00436C69636B20BD
:103BE000746F2072657475726E0053544F524500A5
:103BF00053746F726520696E7665727420666C61AD
:103C0000677300496E766572742061786973006D20
:103C10006D00456E64206C656E67746800456E6467
:103C2000206F66207072696E74206C656E677468B0
:103C3000006D6D2F73005265747261637420737030
:103C4000656564006D6D0052657472616374005245
:103C5000657472616374206C656E677468004241BC
:103C6000434B004241434B00436C69636B20746FCC
:103C70002072657475726E0053544F524500537430
:103C80006F72652073657474696E67730052657432
:103C900072616374696F6E2073657474696E6773A3
:103CA000004500457874727564657220286D41295D
:103CB000005A005A206178697320286D4129005804
:103CC0002F5900582F59206178697320286D412998
:103CD000004241434B004241434B00436C69636BDC
:103CE00020746F2072657475726E0053544F524584
:103CF0000053746F72652073657474696E67730026
:103D00004D6F746F722043757272656E74006D6DC5
:103D10002F730045004D61782E2073706565642017
:103D200045006D6D2F73005A004D61782E20737021
:103D3000656564205A006D6D2F730059004D6178E0
:103D40002E2073706565642059006D6D2F730058C7
:103D5000004D61782E2073706565642058004241E3
:103D6000434B004241434B00436C69636B20746FCB
:103D70002072657475726E0053544F52450053742F
:103D80006F72652073657474696E6773000000005C
:103D90000018070100A807140030082800B8083CE4
:103DA0000038095000C0096400480A7800C80A8C2D
:103DB00000480BA000C80BB400480CC800C80CDCBD
:103DC00000400DF000C00D0401380E1801B00E2C9B
:103DD00001280F4001A00F54011810680188107CC1
:103DE00001001190013013F401481558024017BC2E
:103DF0000228192003F01A8403A81CE803401E4C73
:103E0000046D6D005A00746865206275696C647099
:103E10006C617465006E6F7A7A6C6520746F75637F
:103E2000686573004D6F7665205A20756E74696CF5
:103E3000207468650041424F52540041424F525431
:103E40000041626F7274207072696E740007081C02
:103E500022404F40221C54554E450054554E4500BB
:103E600054756E65206D656E7500202F20005A0018
:103E700052656164696E672066696C652E2E2E003E
:103E80006D6D005A005265636F76657220707269BD
:103E90006E742066726F6D005265636F7665722076
:103EA0006865696768740043414E43454C00436C44
:103EB00069636B20746F2072657475726E00505266
:103EC000494E54005374617274207072696E7400AC
:103ED0005265636F766572207072696E74004D383A
:103EE00034004578706572742066756E6374696F0E
:103EF0006E7300473238205830004732382059302E
:103F00000006082214082214086D6D2F73006D6DD1
:103F100000486F6D65205A2061786973005A2061EE
:103F200078697320706F736974696F6E005A004D01
:103F30006F7665205A206178697300486F6D65203F
:103F40005920617869730059206178697320706F16
:103F5000736974696F6E0059004D6F766520592042
:103F60006178697300486F6D6520582061786973C6
:103F70000058206178697320706F736974696F6E7F
:103F80000058004D6F7665205820617869730042B3
:103F900041434B004241434B00436C69636B2074C7
:103FA0006F2072657475726E0020414C4C00486F32
:103FB0006D6520616C6C2061786573004D6F76656E
:103FC0002061786973004D38342058302059300012
:103FD0004D38342058302059300047312046313296
:103FE0003030302058256920592569004D3834205B
:103FF00058302059300044697361626C652058590B
:104000002D73746570706572730044697361626CBE
:10401000652058592D7374657070657273004D6F0B
:104020007665206865616420746F2066726F6E74B7
:10403000004D6F7665206865616420746F2066723C
:104040006F6E7400486F6D652068656164000708D5
:10405000087C466F467C08486F6D65206865616422
:10406000004241434B004241434B00436C69636B48
:1040700020746F2072657475726E0053656C656391
:1040800074206F7074696F6E004D383420453000B5
:104090006D6D00526F7461746520746F2065787463
:1040A000727564650007080708137F1308075265D7
:1040B00073657420706F736974696F6E0006080809
:1040C0001422081422436C69636B202620686F6CED
:1040D0006420746F2070756C6C001F001F2F001F10
:1040E000001F2F004E6F7A7A6C6520000508609ED5
:1040F000819E60546F67676C652068656174657246
:10410000004241434B00070810387C1010101E423B
:1041100041434B00436C69636B20746F207265747C
:1041200075726E0054554E450005082A2A2A2A2A1F
:1041300054554E45004D6F7265206F7074696F6EF7
:1041400073004D6F7665206D6174657269616C00F6
:1041500000002100240027002A002D003000330039
:1041600001010000040107010A01000022002500EE
:1041700028002B002E003100340002010000050150
:1041800008010B01050505050705080808080202D6
:1041900002020A0A080804040404010101010101E1
:1041A00001010303030303030303040707070C0CC4
:1041B0000C0C0C0C0C0C020202020606060606068B
:1041C00006060B0B0B0B0B0B0B0B01021020200830
:1041D0000810204010204080020102010804020162
:1041E00001020408102040808040201008040201D1
:1041F000800402018040201008040201080402012A
:1042000001020408102040800102040810204080B0
:1042100000000A0B02090C0D0E0807030401000040
:10422000000000000000000000000000000000008E
:10423000000000000000000000000000121110004B
:10424000000000000000000000000000000000006E
:10425000000000000000435045004350450041422B
:104260005300504C410043504500435045005550C9
:104270004554002020506C616E6E65724275666612
:10428000657242797465733A200020467265652034
:104290004D656D6F72793A2000446563203230209D
:1042A0003230313900436F6D70696C65643A2000BB
:1042B00054696E6B65725F31382E30382D44455627
:1042C00000207C20417574686F723A200044656359
:1042D00020323020323031392030303A34353A31E2
:1042E0003400204C61737420557064617465643AC5
:1042F0002000312E302E30004D61726C696E20002E
:1043000020536F667477617265205265736574001F
:10431000205761746368646F672052657365740029
:104320002042726F776E206F7574205265736574CA
:10433000002045787465726E616C205265736574F7
:1043400000506F776572557000737461727400501D
:1043500072696E7465722073746F70706564206426
:10436000756520746F206572726F72732E204669B6
:104370007820746865206572726F7220616E6420A7
:10438000757365204D39393920746F2072657374E7
:104390006172742E202854656D7065726174757237
:1043A000652069732072657365742E2053657420CF
:1043B00069742061667465722072657374617274C9
:1043C000696E6729004E6F204C696E65204E756DD1
:1043D000626572207769746820636865636B7375C2
:1043E0006D2C204C617374204C696E653A20004E30
:1043F0006F20436865636B73756D207769746820FF
:104400006C696E65206E756D6265722C204C6173EF
:1044100074204C696E653A2000636865636B737540
:104420006D206D69736D617463682C204C617374C9
:10443000204C696E653A20004C696E65204E756DA2
:10444000626572206973206E6F74204C61737420F2
:104450004C696E65204E756D6265722B312C204C57
:10446000617374204C696E653A20004D3131300023
:104470006563686F3A00256920686F75727320253F
:1044800069206D696E7574657300446F6E65207088
:1044900072696E74696E672066696C65004D3234AE
:1044A000004D3233202573006175746F25692E67C6
:1044B000002F002F0043616E6E6F74206F70656E69
:1044C00020737562646972005344206361726420D2
:1044D0006F6B006F70656E526F6F74206661696CF0
:1044E000656400766F6C756D652E696E6974206603
:1044F00061696C6564004572726F723A00534420C2
:10450000696E6974206661696C006563686F3A0062
:1045100057726974696E6720746F2066696C653ABA
:1045200020002E006F70656E206661696C65642CDA
:104530002046696C653A20002E006F70656E20661B
:1045400061696C65642C2046696C653A2000466997
:104550006C652073656C6563746564002053697ACB
:10456000653A200046696C65206F70656E65643A37
:1045700020002E006F70656E206661696C65642C8A
:104580002046696C653A20004572726F723A0000ED
:10459000EC00680111241FBECFEFD1E2DEBFCDBF1A
:1045A00000E00CBF13E0A0E0B2E0E4EBF9EB02E0C6
:1045B0000BBF02C007900D92A634B107D9F727E1CF
:1045C000A6E4B3E001C01D92AD3CB207E1F712E2F0
:1045D000C9ECD2E200E006C021970109802FFE015C
:1045E0000F94415CC83CD10780E00807A9F70F94FD
:1045F00042430D94C95C0C94000010924611109235
:1046000045111092EF0B1092EE0B1092621008956C
:10461000CF92DF92EF92FF92CF93DF93EC01C090A5
:104620008A11D0908B11E0908C11F0908D11A70120
:104630009601688179818A819B810F94D25487FF8A
:1046400007C0C882D982EA82FB8281E08093C206D9
:10465000C0908E11D0908F11E0909011F090911138
:10466000A70196016C817D818E819F810F94D25428
:1046700087FF07C0CC82DD82EE82FF8281E08093DB
:10468000C206C0909211D0909311E0909411F090D6
:104690009511A7019601688579858A859B850F9478
:1046A000D25487FF07C0C886D986EA86FB8681E098
:1046B0008093C206C0903B02D0903C02E0903D0245
:1046C000F0903E02A7019601688179818A819B81E1
:1046D0000F94AA5A18163CF4C882D982EA82FB8247
:1046E00081E08093C206C0903F02D0904002E090EB
:1046F0004102F0904202A70196016C817D818E817A
:104700009F810F94AA5A18163CF4CC82DD82EE8267
:10471000FF8281E08093C206C0904302D0904402A1
:10472000E0904502F0904602A701960168857985E0
:104730008A859B850F94AA5A18163CF4C886D98698
:10474000EA86FB8681E08093C206DF91CF91FF90DD
:10475000EF90DF90CF900895CF93DF93BC01660F69
:10476000771F660F771F8230910549F5E2E0FAE086
:10477000E491EF3FD9F4209192113091931140913F
:10478000941150919511EB01C556DB4EFB01E051A0
:10479000F44F60817181828193810F945F586883A7
:1047A00079838A839B83DF91CF910895209143027F
:1047B000309144024091450250914602E4CF80502E
:1047C000964FFC018491FB018F3F39F4E657FE4E72
:1047D0002081318142815381D6CFE55CFD4FF8CFF6
:1047E00080914E0321E030E0082E01C0220F0A9490
:1047F000EAF720959091E61129232093E6118F5F27
:10480000877080934E0380917A12815080937A1240
:10481000089590917A129F5F90937A1290914F062B
:1048200021E030E0092E01C0220F0A94EAF74091FE
:10483000E611882341F0242B2093E6119F5F9770A7
:1048400090934F06089520952423F6CFE0E7F4E4F3
:104850008491882341F09091C00095FFFCCF809314
:10486000C6003196F5CFE1E9F5E08491882341F067
:104870009091C00095FFFCCF8093C6003196F5CF94
:10488000E0914F0680E6E89FF0011124E15BFC4FC8
:104890008191882339F09091C00095FFFCCF8093DF
:1048A000C600F6CFEFE8F5E08491882341F09091BF
:1048B000C00095FFFCCF8093C6003196F5CF809164
:1048C000C00085FFFCCF8AE08093C60080E0A1CFC6
:1048D0009C01E6E5F5E09491992341F08091C000B8
:1048E00085FFFCCF9093C6003196F5CFF9018491F6
:1048F000882349F09091C00095FFFCCF8093C600BB
:104900002F5F3F4FF3CF8091C00085FFFCCF8AE03F
:104910008093C6000895089590E080E008950F9474
:10492000573760938A0670938B0680938C0690931A
:104930008D06E8E5F8E08491882341F09091C0006D
:1049400095FFFCCF8093C6003196F5CF8091C000D3
:1049500085FFFCCF8AE08093C6000895EF92FF9216
:104960000F931F93CF938C017B01C42FF80180819B
:1049700091810F94E357F70181937F01F8018081C2
:104980009181019691838083C15081F7CF911F91CE
:104990000F91FF90EF900895FC01CB01BA01249193
:1049A000222341F03091C00035FFFCCF2093C60098
:1049B0003196F5CF4AE00D94AC272F923F924F925B
:1049C0005F926F927F928F929F92AF92BF92CF929F
:1049D000DF92EF92FF920F931F93CF93DF93CDB7A8
:1049E000DEB7ED970FB6F894DEBF0FBECDBF382E01
:1049F000C0905506D0905606E0905706F0905806A5
:104A000040905106509052066090530670905406A4
:104A1000A7019601C301B2010F94BB5A698F7A8F27
:104A20008B8F9C8F20919B1430919C1440919D14EE
:104A300050919E14C301B2010F945F586AA77BA7DF
:104A40008CA79DA720919F143091A0144091A11490
:104A50005091A214C701B6010F945F586EA77FA7AB
:104A600088AB99AB8091A3149091A414A091A51444
:104A7000B091A6148D8F9E8FAF8FB8A39C01AD010E
:104A80006091A1067091A2068091A3069091A40660
:104A90000F945E5869A37AA38BA39CA377FA7094B2
:104AA00077F87094D701C601B058898B9A8BAB8B7D
:104AB000BC8B2AA53BA54CA55DA56091990670917C
:104AC0009A0680919B0690919C060F945E586B010C
:104AD0007C012EA53FA548A959A960919D0670911A
:104AE0009E0680919F069091A0060F945E584B0100
:104AF0005C01A7019601C301B2010F949F4F6D8B1A
:104B00007E8B8F8B988FA501940169897A898B8917
:104B10009C890F949F4F9B01AC016D897E898F8981
:104B2000988D0F945F586D8B7E8B8F8B988FA5011E
:104B30009401C301B2010F949F4F4B015C01A70187
:104B4000960169897A898B899C890F949F4F9B0173
:104B5000AC01C501B4010F945E582D893E894F897F
:104B6000588D0F94DD586B017C0120E030E0A901E5
:104B70000F94D25487FF0AC02BED3FE049EC50E47C
:104B8000C701B6010F945F586B017C01332051F0CF
:104B90002BED3FE049EC50E4C701B6010F945E589D
:104BA0006B017C01A7019601698D7A8D8B8D9C8D9F
:104BB0000F949F4F29A13AA14BA15CA10F94BB5A1E
:104BC0004B015C012FE632E143E85AE30F94D254E3
:104BD00087FDC1C1C501B4010F94F3590F94C459A5
:104BE0007E8B6D8BDB01AB2B21F421E030E03E8B23
:104BF0002D8B309147113DA36091150270911602E3
:104C0000072E000C880B990B0F94D85420910902A1
:104C100030910A0240910B0250910C020F949F4F69
:104C200020E030E040E752E40F944D5920E030E0BE
:104C300048EC52E40F944D596EA37FA388A799A71F
:104C40008091A7149091A814A091A914B091AA14CE
:104C50008AAB9BABACABBDABAD89BE89BD0190E06F
:104C600080E00F94D6544B015C01AC019B01C7015D
:104C7000B6010F944D59698F7A8F8B8F9C8FA50148
:104C8000940169A17AA18BA19CA10F944D596EAB9F
:104C90007FAB88AF99AF2AA93BA94CA95DA96091C8
:104CA000A5067091A6068091A7069091A8060F947C
:104CB0005E58A50194010F944D596AAF7BAF8CAF3C
:104CC0009DAF20E030E040E05FE3698D7A8D8B8D11
:104CD0009C8D0F949F4F298D3A8D4B8D5C8D0F9439
:104CE0009F4F9B01AC0160E070E080E89FE30F9470
:104CF0005E5869A37AA38BA39CA38D8D9E8DAF8DE7
:104D0000B8A189879A87AB87BC878AA99BA9ACA9D8
:104D1000BDA98D879E87AF87B88BA12C22242394B1
:104D2000312CAD89BE89A215B30509F401C1B8E1E2
:104D3000BA150CF494C0A3019201698D7A8D8B8D04
:104D40009C8D0F949F4F6B017C0129893A894B8977
:104D50005C8969A17AA18BA19CA10F949F4F9B01B3
:104D6000AC01C701B6010F945F58B62ED72E7C0157
:104D7000A301920169A17AA18BA19CA10F949F4FDD
:104D80002B013C0129893A894B895C89698D7A8D8F
:104D90008B8D9C8D0F949F4F9B01AC01C301B20181
:104DA0000F945E582B013C01A3948B2D9D2DD701B0
:104DB000898B9A8BAB8BBC8BA30192016AA57BA5D7
:104DC0008CA59DA50F945F5869837A838B839C8300
:104DD00029893A894B895C896EA57FA588A999A9FB
:104DE0000F945F586D837E838F8398872EA93FA988
:104DF00048AD59AD69857A858B859C850F945F5840
:104E000069877A878B879C872AAD3BAD4CAD5DADBA
:104E10006D857E858F8598890F945F586D877E8715
:104E20008F87988BCE010196F3DB80917B128630C1
:104E300091F0CDA0EEA0FFA008A519A59E01235FCB
:104E40003F4FAE01475F5F4FBE016B5F7F4FCE01AB
:104E500001960E94A4A19FEF291A390A62CFB101DD
:104E600090E080E00F94D654298D3A8D4B8D5C8D67
:104E70000F949F4F6B017C010F944A59698B7A8B79
:104E80008B8B9C8BC701B6010F948A5B4B015C0135
:104E9000C0905106D0905206E0905306F090540610
:104EA000F7FAF094F7F8F094809155069091560631
:104EB000A0915706B09158068D8F9E8FAF8FB8A3E3
:104EC000A701960169897A898B899C890F949F4FE4
:104ED0002B013C012D8D3E8D4F8D58A1C501B40194
:104EE0000F949F4F9B01AC01C301B2010F945F5817
:104EF0002B013C01A7019601C501B4010F949F4FFE
:104F00006B017C012D8D3E8D4F8D58A169897A8969
:104F10008B899C890F949F4F9B01AC01C701B601FF
:104F20000F945E58698B7A8B8B8B9C8BA12C44CF12
:104F300080917B12863079F0CDA0EEA0FFA008A56D
:104F400019A525EA36E041EA56E06DE976E089E9FF
:104F500096E00E94A4A1E9E9F6E0ABE9B4E189EAB0
:104F600096E041915191619171914D935D936D9353
:104F70007D938E179F07A9F70F94573760938A0682
:104F800070938B0680938C0690938D06ED960FB6EA
:104F9000F894DEBF0FBECDBFDF91CF911F910F916F
:104FA000FF90EF90DF90CF90BF90AF909F908F9049
:104FB0007F906F905F904F903F902F9008958091D9
:104FC00070129091711290936F1280936E12EFE4B1
:104FD000F8E08491882341F09091C00095FFFCCFC8
:104FE0008093C6003196F5CF6091E8117091E91178
:104FF0008091EA119091EB116F5F7F4F8F4F9F4F20
:105000000F9429288091C00085FFFCCF8AE080930F
:10501000C60085CCAF92BF92CF92DF92EF92FF9203
:105020000F931F93CF93DF93CDB7DEB7E0970FB603
:10503000F894DEBF0FBECDBF80E1E5E7F2E0DE0110
:10504000119601900D928A95E1F780E1E5E8F2E092
:10505000DE01519601900D928A95E1F780E1E5E934
:10506000F2E0DE01919601900D928A95E1F7CE0172
:1050700001965C0163ED74E1DE01519643E750E176
:105080009E012F5D3F4F85EF96E08D01F501C190A8
:10509000D190E190F1905F01FB01C192D192E19238
:1050A000F192BF01CD90DD90ED90FD90FA01C1929B
:1050B000D192E192F192AF01F901C190D190E190CA
:1050C000F1909F01FC01C192D192E192F192CF0146
:1050D000A016B106D9F60E949C9D80E090E8ABE353
:1050E000B5E48093E50B9093E60BA093E70BB093A8
:1050F000E80B80936F1090937010A0937110B09391
:1051000072101092DD061092DE061092DF061092E9
:10511000E00680E29EE4A0E0B0E08093D9069093A0
:10512000DA06A093DB06B093DC061092E10610923B
:10513000E2061092E3061092E40680E090E0A0EA16
:10514000B1E48093E10B9093E20BA093E30BB09357
:10515000E40B8DEC9CECACECBEE38093D506909315
:10516000D606A093D706B093D80680E090E0A0EAD8
:10517000B0E480936B1090936C10A0936D10B0937B
:105180006E101092F80B1092F90B1092FA0B10920D
:10519000FB0B1092F40B1092F50B1092F60B109281
:1051A000F70B1092F00B1092F10B1092F20B109281
:1051B000F30B80E090E0A0E2B1E480935902909379
:1051C0005A02A0935B02B0935C028CEA95ECA7EACA
:1051D000BDE38093550290935602A0935702B0937B
:1051E000580280E29CEBAEE3B5E4809351029093C9
:1051F0005202A0935302B09354020E94789480EB21
:1052000094E090934C0280934B0290934E028093D3
:105210004D0282EE94E09093500280934F0284E618
:10522000809314021092D40680E090E0A0E9B0E4EC
:1052300080931D0290931E02A0931F02B093200240
:1052400080E090E8ABEBB4E48093190290931A02EB
:10525000A0931B02B0931C02E0E5F5E08491882343
:1052600041F09091C00095FFFCCF8093C60031962D
:10527000F5CFEEE2F5E08491882341F09091C000F3
:1052800095FFFCCF8093C6003196F5CF8091C0008A
:1052900085FFFCCF8AE08093C600E0960FB6F894B5
:1052A000DEBF0FBECDBFDF91CF911F910F91FF9059
:1052B000EF90DF90CF90BF90AF900895FC012081D8
:1052C000222349F06AE270E00F94865C009729F08F
:1052D000FC011082089590E080E00895062E000CF5
:1052E000770B0F94865C9C019093980680939706A9
:1052F00081E0232B09F480E008950F931F93CF934F
:105300008B0164E5EBDFC82F882309F461C080912D
:1053100097069091980670E060E001960F9478519E
:105320000F94C45960939606662309F456C0E0E7CB
:10533000F4E48491882341F09091C00095FFFCCF64
:105340008093C6003196F5CF0936110599F00D36D8
:105350001105E9F00836110539F5E0E3F9E084912B
:10536000882311F19091C00095FFFCCF8093C60077
:105370003196F5CFE9E1F9E084918823A9F0909185
:10538000C00095FFFCCF8093C6003196F5CFE2E0D8
:10539000F9E08491882341F09091C00095FFFCCF03
:1053A0008093C6003196F5CF809196069091C0000B
:1053B00095FFFCCF8093C6008091C00085FFFCCF95
:1053C0008AE08093C6008C2FCF911F910F91089592
:1053D0008091471180939606F6CFC0E0F4CF2F92CC
:1053E0003F924F925F926F927F928F929F92AF9275
:1053F000BF92CF92DF92EF92FF920F931F93CF93C2
:10540000DF9300D0CDB7DEB76C018DEDA82E82E022
:10541000B82E9BE9E92E94E1F92E09E916E01B82EA
:105420001A82212C88248394912C8A818983F50106
:1054300061915F01C60152DF382E882309F4EFC065
:10544000809197069091980670E060E001960F9425
:1054500078512B013C012091C406822F90E00A80F4
:1054600002C0959587950A94E2F780FD04C0322E1C
:10547000331C3324331C632D70E090E080E00F94E4
:10548000D854F70120813181428153810F949F4F7D
:10549000A30192010F945F58F801608371838283A6
:1054A0009383C401098002C0880F991F0A94E2F710
:1054B000282A8A819B8101969B838A8394E0E90E46
:1054C000F11C0C5F1F4FEA81FB81349709F0ADCFCF
:1054D00066E4C60103DF8823D1F08091970690919E
:1054E000980670E060E001960F9478516B017C01A2
:1054F00020E030E0A9010F94AA5A181644F4C09293
:105500000902D0920A02E0920B02F0920C02809102
:105510005006882309F46DC0F8E02F126AC080900D
:10552000A7149090A814A090A914B090AA14A50153
:1055300094016091A5067091A6068091A7069091AE
:10554000A8060F945E586B017C012DEC3CEC4CECF2
:105550005DEB0F94D25487FF6DC08091C30681111B
:1055600048C02091050230910602409107025091F7
:1055700008026091A1067091A2068091A306909105
:10558000A4060F945F586093A1067093A2068093BF
:10559000A3069093A406C701B601905820911D025E
:1055A00030911E0240911F02509120020F945E58CC
:1055B0009B01AC01C501B4010F945E586093A71420
:1055C0007093A8148093A9149093AA14809119023F
:1055D00090911A02A0911B02B0911C0280930902C3
:1055E00090930A02A0930B02B0930C0281E0809387
:1055F000C3060F900F900F90DF91CF911F910F91E5
:10560000FF90EF90DF90CF90BF90AF909F908F90E2
:105610007F906F905F904F903F902F900895F7018B
:1056200080819181A281B381F80180839183A283DB
:10563000B3833FCF2DEC3CEC4CEC5DE3C701B601EE
:105640000F94AA5A1816ACF68091C306882389F2E3
:10565000A701960160911D0270911E0280911F02A8
:10566000909120020F945E5820915710309158105D
:105670004091591050915A100F945F58A501940110
:105680000F945F586093A7147093A8148093A91483
:105690009093AA148091010290910202A0910302BA
:1056A000B09104028093090290930A02A0930B0226
:1056B000B0930C021092C3069CCFCF93DF93EC0102
:1056C0008EDE69E4CE010ADE882351F180919706CF
:1056D0009091980670E060E001960F947851609385
:1056E00051067093520680935306909354066AE4D1
:1056F000CE01F4DD8823E9F0809197069091980619
:1057000070E060E001960F947851609355067093B5
:1057100056068093570690935806DF91CF910895CF
:10572000109251061092520610925306109254068F
:10573000DECF109255061092560610925706109220
:105740005806EBCFEFEAF5E08491882341F0909181
:10575000C00095FFFCCF8093C6003196F5CFE09155
:10576000960684E0E89FF0011124EF5BFE4E608115
:1057700071818281938141E00F943B28ECEAF5E04E
:105780008491882341F09091C00095FFFCCF8093D5
:10579000C6003196F5CFE0919606F0E0EE0FFF1FC0
:1057A000EB5BFE4E6081718190E080E00F94D654F7
:1057B00041E00F943B28E8EAF5E08491882341F02A
:1057C0009091C00095FFFCCF8093C6003196F5CF35
:1057D0006091EA0B7091EB0B8091EC0B9091ED0BCB
:1057E00041E00F943B28E5EAF5E08491882341F0FD
:1057F0009091C00095FFFCCF8093C6003196F5CF05
:105800006091EE0B7091EF0B90E080E00F94D65416
:1058100041E00F943B28E0EAF5E08491882341F0D1
:105820009091C00095FFFCCF8093C6003196F5CFD4
:105830006091851070E090E080E00F942928ECE9F9
:10584000F5E08491882341F09091C00095FFFCCF52
:105850008093C6003196F5CFE0919606F0E0EC57C4
:10586000FF4E608170E090E080E00D942928EF9277
:10587000FF920F931F93CF938C017B01C42FF701ED
:1058800061917F01F801808191810F94FE57F801A9
:1058900080819181019691838083C15081F7CF915E
:1058A0001F910F91FF90EF900895AF92BF92CF920A
:1058B000DF92EF92FF920F931F93CF93DF93A62F68
:1058C000A695A695A69520E8A29FD0011124A80F21
:1058D000B11DED01C95AD34FA952B34F677078E09B
:1058E000761BFA01249185E0B82E222309F4BBC06F
:1058F000CE0187559C408B3F93400CF0B4C0CD0146
:1059000087559C408B3F93400CF0ADC0022E000C9D
:10591000330B2D513109B29EC001B39E900D11245D
:105920008F55914FFC012491062E01C0220F0A943D
:10593000EAF720953881232328836C01FFEFCF1AE3
:10594000DF0AF6012491062E01C0220F0A94EAF71D
:1059500020953981232329837C01F2E0EF0EF11C8D
:10596000F7012491062E01C0220F0A94EAF7209530
:105970003A8123232A838C010D5F1F4FF801249164
:10598000062E01C0220F0A94EAF720953B812323BB
:105990002B839C012C5F3F4FF901A490EA2D062E2A
:1059A00001C0EE0F0A94EAF7E095FC81EF23EC8347
:1059B0002696662309F452C0FC01849190E0072EDC
:1059C00002C0959587950A94E2F780959C9189236A
:1059D0008C93F601C490D12C072E02C0D594C794A5
:1059E0000A94E2F7C09411968C911197C8221196EF
:1059F000CC921197F701E490F12C072E02C0F59498
:105A0000E7940A94E2F7E09412968C911297E822B8
:105A10001296EC921297F801049110E0072E02C042
:105A2000159507950A94E2F7009513968C911397B4
:105A3000082313960C931397F901249130E0072E55
:105A400002C0359527950A94E2F7209514968C911B
:105A50001497282314962C93149716964F5F5F4F34
:105A6000FA01249142CFDF91CF911F910F91FF90C6
:105A7000EF90DF90CF90BF90AF900895AF92BF921C
:105A8000CF92DF92EF92FF920F931F93CF93DF930A
:105A9000A62FA695A695A69520E8A29FD001112431
:105AA000A80FB11DED01C95AD34FA952B34F67706A
:105AB00078E0761BFA01249185E0B82E222309F4C0
:105AC000B1C0CE0187559C408B3F93400CF0AAC0DB
:105AD000CD0187559C408B3F93400CF0A3C0022E14
